{
  "contractName": "Crewed",
  "abi": [
    {
      "constant": true,
      "inputs": [
        {
          "name": "",
          "type": "address"
        }
      ],
      "name": "crew",
      "outputs": [
        {
          "name": "",
          "type": "bool"
        }
      ],
      "payable": false,
      "stateMutability": "view",
      "type": "function"
    },
    {
      "inputs": [],
      "payable": false,
      "stateMutability": "nonpayable",
      "type": "constructor"
    },
    {
      "payable": true,
      "stateMutability": "payable",
      "type": "fallback"
    },
    {
      "constant": false,
      "inputs": [
        {
          "name": "crewMember",
          "type": "address"
        }
      ],
      "name": "addCrewMember",
      "outputs": [],
      "payable": false,
      "stateMutability": "nonpayable",
      "type": "function"
    },
    {
      "constant": false,
      "inputs": [
        {
          "name": "crewMember",
          "type": "address"
        }
      ],
      "name": "removeCrewMember",
      "outputs": [],
      "payable": false,
      "stateMutability": "nonpayable",
      "type": "function"
    }
  ],
  "bytecode": "0x608060405234801561001057600080fd5b5033151561007f57604080517f08c379a000000000000000000000000000000000000000000000000000000000815260206004820152601260248201527f4372657765642e636f6e7374727563746f720000000000000000000000000000604482015290519081900360640190fd5b336000908152602081905260409020805460ff19166001179055610252806100a86000396000f30060806040526004361061003d5763ffffffff60e060020a600035041663a27460e5811461003f578063a2f304a614610060578063e16a2efa14610081575b005b34801561004b57600080fd5b5061003d600160a060020a03600435166100b6565b34801561006c57600080fd5b5061003d600160a060020a0360043516610192565b34801561008d57600080fd5b506100a2600160a060020a0360043516610211565b604080519115158252519081900360200190f35b3360009081526020819052604090205460ff161515610114576040805160e560020a62461bcd02815260206004820152600f6024820152608860020a6e4372657765642e6f6e6c794372657702604482015290519081900360640190fd5b600160a060020a038116151561016e576040805160e560020a62461bcd0281526020600482015260146024820152606160020a7321b932bbb2b21730b23221b932bba6b2b6b132b902604482015290519081900360640190fd5b600160a060020a03166000908152602081905260409020805460ff19166001179055565b3360009081526020819052604090205460ff1615156101f0576040805160e560020a62461bcd02815260206004820152600f6024820152608860020a6e4372657765642e6f6e6c794372657702604482015290519081900360640190fd5b600160a060020a03166000908152602081905260409020805460ff19169055565b60006020819052908152604090205460ff16815600a165627a7a72305820b897b30b7e998c3e46222463b54a543c3cd69cba88b28abe0e061cacf0c1e1ae0029",
  "source": "pragma solidity ^0.4.24;\n\n// Solidity 0.5.1 reference documentation --- https://solidity.readthedocs.io/en/v0.5.1/\n\n/**# A YAML specification for all the explicit revert messages in Crewed and TreasureChest\n\nRevert:\n    Crewed:\n        constructor: \"We don't allow 0x0 to be a crew member, or contract creator\"\n        onlyCrew: \"You must be in the crew to call this\"\n        addCrewMember: \"We don't allow 0x0 to be a crew member\"\n    TreasureChest:\n        addDrain:\n            0: \"We don't allow 0x0 to be a drain address\"\n            1: \"We don't allow an 'active' drain to be added again\"\n            2: \"The given max must be non-zero\"\n            3: \"The given min must be less than or equal to the given max\"\n        updateDrainMin:\n            0: \"The specified drain must be 'active'\"\n            1: \"The given min must be less than or equal to the current max\"\n        updateDrainMax:\n            0: \"The specified drain must be 'active'\"\n            1: \"The given max must be non-zero\"\n            2: \"The given max must be greater than or equal to the current min\"\n        removeDrain: \"You can't remove a 'non active' drain\"\n*/\n\ncontract Crewed {\n\n    /// crew: bit mapping for authorized operator addresses for this contract\n    mapping(address => bool) public crew;\n\n    constructor() public {\n        // We don't allow 0x0 to be a crew member, or contract creator.\n        require(msg.sender != 0x0, \"Crewed.constructor\");\n\n        // Set the contract's creator as a crew member, we need at least one\n        crew[msg.sender] = true;\n    }\n\n    // This contract will be used to send in money from Kovan test faucets.\n    // These faucets simply transfer (Kovan) ETH as if this was a user's address.\n    function () public payable {}\n\n    /**\n     *    If the crew mapping returns false, make them walk the plank.\n     *\n     *    In the line below, msg.sender is the address that called the\n     *    original function.\n     *\n     *       \"The values of all members of msg, including\n     *        msg.sender and msg.value can change for every\n     *        external function call. This includes calls to\n     *        library functions.\"\n     *\n     *   https://solidity.readthedocs.io/en/v0.5.1/units-and-global-variables.html#special-variables-and-functions\n     */\n    modifier onlyCrew() {\n        // You must be in the crew to call this.\n        require(crew[msg.sender], \"Crewed.onlyCrew\");\n        _;\n    }\n\n    function addCrewMember(address crewMember) public onlyCrew {\n        // We don't allow 0x0 to be a crew member.\n        require(crewMember != 0x0, \"Crewed.addCrewMember\");\n\n        // Set to true to be welcomed into the crew\n        crew[crewMember] = true;\n    }\n\n    function removeCrewMember(address crewMember) public onlyCrew {\n        // Doesn't matter if crewMember is already false, just set anyway\n        // If you're spending money on removing non crew members, oh well\n        crew[crewMember] = false;\n    }\n}\n\ncontract TreasureChest is Crewed {\n\n    /**\n     *    Drain will be created 'once' per address. Technically, if a drain is added,\n     *    removed, then added again, a new Drain will be 'created' but in the exact same\n     *    spot as the previous one.\n     *\n     *    The size of these values could be smaller. However min and max in units\n     *    of (Kovan) Eth Wei best suits its use as thresholds for account balances.\n     *    Nothing about this contract requires Wei units. Since min and max are uint256,\n     *    making index smaller has no gas saving due to fixed size word packing.\n     */\n    struct Drain {\n        uint256 index;\n        uint256 min;\n        uint256 max;\n    }\n\n    mapping(address => Drain) public drains;\n    mapping(uint256 => address) public drainPointers;\n    uint256 public drainPointerHead;\n\n    /// The constructor is default and can be omitted\n\n    function addDrain(address drainAddress, uint256 _min, uint256 _max) public onlyCrew {\n        // We wont allow 0x0 to be a drain address\n        require(drainAddress != 0x0, \"TreasureChest.addDrain.0\");\n        // We wont allow an 'active' drain to be added again. It will overwrite the\n        // existing struct, but drain pointers will become littered.\n        require(drains[drainAddress].max == 0, \"TreasureChest.addDrain.1\");\n        // If a drain's max is 0, we'll never end up doing anything, so ignore it\n        require(_max != 0, \"TreasureChest.addDrain.2\");\n        // If a drain's min is greater than its max, our math will screw up\n        require(_min <= _max, \"TreasureChest.addDrain.3\");\n\n        // Add the new drainAddress to the head of the drain pointer 'list'\n        drainPointers[drainPointerHead] = drainAddress;\n        // Record the current index, min, and max\n        drains[drainAddress] = Drain(drainPointerHead, _min, _max);\n        // Increment the pointer head for the next added drain\n        drainPointerHead += 1;\n    }\n\n    function updateDrainMin(address drainAddress, uint256 _min) public onlyCrew {\n        // We never allow an 'active' drain to have max == 0, and can use that as proof it is one\n        require(drains[drainAddress].max != 0, \"TreasureChest.updateDrainMin.0\");\n        // If a drain's min is greater than its max, our math will screw up\n        require(_min <= drains[drainAddress].max, \"TreasureChest.updateDrainMin.1\");\n\n        // Update min\n        drains[drainAddress].min = _min;\n    }\n\n    function updateDrainMax(address drainAddress, uint256 _max) public onlyCrew {\n        // We never allow an 'active' drain to have max == 0, and can use that as proof it is one\n        require(drains[drainAddress].max != 0, \"TreasureChest.updateDrainMax.0\");\n        // If a drain's max is 0, we'll never end up doing anything, so ignore it\n        require(_max != 0, \"TreasureChest.updateDrainMax.1\");\n        // If a drain's min is greater than its max, our math will screw up\n        require(drains[drainAddress].min <= _max, \"TreasureChest.updateDrainMax.2\");\n\n        // Update max\n        drains[drainAddress].max = _max;\n    }\n\n    /**\n     *    There is no point in setting Drain.min or Drain.index to 0. View calls to\n     *    drainPointers will skip it, and the history of transactions will always\n     *    reveal past drains. If we try updating, Drain.max will not let it pass.\n     *    If we want to add a new one, it will simply be over written anyway.\n     */\n    function removeDrain(address drainAddress) public onlyCrew {\n        // We never allow an 'active' drain to have max == 0, and can use that as proof it is one\n        require(drains[drainAddress].max != 0, \"TreasureChest.removeDrain\");\n\n        // Since we don't allow drain addresses to be 0x0, we can nullify the\n        // drain pointer. We rely on the number of drains to be relatively\n        // low, so calls to view drainPointers is cheap.\n        drainPointers[drains[drainAddress].index] = 0x0;\n        // Must zero out max, as this is what we use to check drain status\n        drains[drainAddress].max = 0;\n    }\n}\n",
  "sourcePath": "/Users/tylerhaden/Desktop/PlunderBot/treasure-chest/contracts/TreasureChest.sol",
  "compiler": {
    "name": "solc",
    "version": "0.4.24+commit.e67f0147.Emscripten.clang"
  },
  "schemaVersion": "2.0.1",
  "updatedAt": "2018-12-12T15:50:03.691Z"
}