{
  "contractName": "TreasureChest",
  "abi": [
    {
      "inputs": [],
      "payable": false,
      "stateMutability": "nonpayable",
      "type": "constructor"
    },
    {
      "payable": true,
      "stateMutability": "payable",
      "type": "fallback"
    },
    {
      "constant": false,
      "inputs": [
        {
          "name": "_crewMember",
          "type": "address"
        }
      ],
      "name": "addCrewMember",
      "outputs": [],
      "payable": false,
      "stateMutability": "nonpayable",
      "type": "function"
    },
    {
      "constant": false,
      "inputs": [
        {
          "name": "_crewMember",
          "type": "address"
        }
      ],
      "name": "removeCrewMember",
      "outputs": [],
      "payable": false,
      "stateMutability": "nonpayable",
      "type": "function"
    },
    {
      "constant": false,
      "inputs": [],
      "name": "deposit",
      "outputs": [],
      "payable": true,
      "stateMutability": "payable",
      "type": "function"
    },
    {
      "constant": false,
      "inputs": [
        {
          "name": "amount",
          "type": "uint256"
        }
      ],
      "name": "withdraw",
      "outputs": [],
      "payable": false,
      "stateMutability": "nonpayable",
      "type": "function"
    }
  ],
  "bytecode": "0x608060405234801561001057600080fd5b5060016000803373ffffffffffffffffffffffffffffffffffffffff1673ffffffffffffffffffffffffffffffffffffffff16815260200190815260200160002060006101000a81548160ff02191690831515021790555061048d806100776000396000f300608060405260043610610062576000357c0100000000000000000000000000000000000000000000000000000000900463ffffffff1680632e1a7d4d14610064578063a27460e514610091578063a2f304a6146100d4578063d0e30db014610117575b005b34801561007057600080fd5b5061008f60048036038101908080359060200190929190505050610121565b005b34801561009d57600080fd5b506100d2600480360381019080803573ffffffffffffffffffffffffffffffffffffffff16906020019092919050505061022b565b005b3480156100e057600080fd5b50610115600480360381019080803573ffffffffffffffffffffffffffffffffffffffff169060200190929190505050610345565b005b61011f61045f565b005b6000803373ffffffffffffffffffffffffffffffffffffffff1673ffffffffffffffffffffffffffffffffffffffff16815260200190815260200160002060009054906101000a900460ff1615156101e1576040517f08c379a00000000000000000000000000000000000000000000000000000000081526004018080602001828103825260168152602001807f596f75206172656e277420696e2074686520637265770000000000000000000081525060200191505060405180910390fd5b3373ffffffffffffffffffffffffffffffffffffffff166108fc829081150290604051600060405180830381858888f19350505050158015610227573d6000803e3d6000fd5b5050565b6000803373ffffffffffffffffffffffffffffffffffffffff1673ffffffffffffffffffffffffffffffffffffffff16815260200190815260200160002060009054906101000a900460ff1615156102eb576040517f08c379a00000000000000000000000000000000000000000000000000000000081526004018080602001828103825260168152602001807f596f75206172656e277420696e2074686520637265770000000000000000000081525060200191505060405180910390fd5b60016000808373ffffffffffffffffffffffffffffffffffffffff1673ffffffffffffffffffffffffffffffffffffffff16815260200190815260200160002060006101000a81548160ff02191690831515021790555050565b6000803373ffffffffffffffffffffffffffffffffffffffff1673ffffffffffffffffffffffffffffffffffffffff16815260200190815260200160002060009054906101000a900460ff161515610405576040517f08c379a00000000000000000000000000000000000000000000000000000000081526004018080602001828103825260168152602001807f596f75206172656e277420696e2074686520637265770000000000000000000081525060200191505060405180910390fd5b60008060008373ffffffffffffffffffffffffffffffffffffffff1673ffffffffffffffffffffffffffffffffffffffff16815260200190815260200160002060006101000a81548160ff02191690831515021790555050565b5600a165627a7a7230582081d82cae570ba85567b5ab3d0d0f281fc0771db902e5e6b88ea359a2e663883e0029",
  "source": "pragma solidity ^0.4.0;\n\ncontract TreasureChest {\n\n    mapping(address => bool) crew;\n\n    constructor() public {\n        crew[msg.sender] = true;\n    }\n\n    modifier onlyCrew() {\n        require(crew[msg.sender], \"You aren't in the crew\");\n        _;\n    }\n\n    function addCrewMember(address _crewMember) public onlyCrew {\n        crew[_crewMember] = true;\n    }\n\n    function removeCrewMember(address _crewMember) public onlyCrew {\n        crew[_crewMember] = false;\n    }\n\n    function deposit() public payable {}\n\n    function withdraw(uint256 amount) public onlyCrew {\n        msg.sender.transfer(amount);\n    }\n\n    function () public payable {}\n}\n",
  "sourcePath": "/Users/tylerhaden/Desktop/PlunderBot/treasure-chest/contracts/TreasureChest.sol",
  "compiler": {
    "name": "solc",
    "version": "0.4.24+commit.e67f0147.Emscripten.clang"
  },
  "schemaVersion": "2.0.1",
  "updatedAt": "2018-11-30T19:44:20.144Z"
}